{
  "contractName": "Cypher",
  "abi": [
    {
      "inputs": [],
      "stateMutability": "nonpayable",
      "type": "constructor"
    },
    {
      "anonymous": false,
      "inputs": [
        {
          "indexed": true,
          "internalType": "address",
          "name": "owner",
          "type": "address"
        },
        {
          "indexed": true,
          "internalType": "address",
          "name": "approved",
          "type": "address"
        },
        {
          "indexed": true,
          "internalType": "uint256",
          "name": "tokenId",
          "type": "uint256"
        }
      ],
      "name": "Approval",
      "type": "event"
    },
    {
      "anonymous": false,
      "inputs": [
        {
          "indexed": true,
          "internalType": "address",
          "name": "owner",
          "type": "address"
        },
        {
          "indexed": true,
          "internalType": "address",
          "name": "operator",
          "type": "address"
        },
        {
          "indexed": false,
          "internalType": "bool",
          "name": "approved",
          "type": "bool"
        }
      ],
      "name": "ApprovalForAll",
      "type": "event"
    },
    {
      "anonymous": false,
      "inputs": [
        {
          "indexed": true,
          "internalType": "address",
          "name": "from",
          "type": "address"
        },
        {
          "indexed": true,
          "internalType": "address",
          "name": "to",
          "type": "address"
        },
        {
          "indexed": true,
          "internalType": "uint256",
          "name": "tokenId",
          "type": "uint256"
        }
      ],
      "name": "Transfer",
      "type": "event"
    },
    {
      "inputs": [],
      "name": "admin",
      "outputs": [
        {
          "internalType": "address",
          "name": "",
          "type": "address"
        }
      ],
      "stateMutability": "view",
      "type": "function",
      "constant": true
    },
    {
      "inputs": [
        {
          "internalType": "address",
          "name": "to",
          "type": "address"
        },
        {
          "internalType": "uint256",
          "name": "tokenId",
          "type": "uint256"
        }
      ],
      "name": "approve",
      "outputs": [],
      "stateMutability": "nonpayable",
      "type": "function"
    },
    {
      "inputs": [
        {
          "internalType": "address",
          "name": "owner",
          "type": "address"
        }
      ],
      "name": "balanceOf",
      "outputs": [
        {
          "internalType": "uint256",
          "name": "",
          "type": "uint256"
        }
      ],
      "stateMutability": "view",
      "type": "function",
      "constant": true
    },
    {
      "inputs": [],
      "name": "baseURI",
      "outputs": [
        {
          "internalType": "string",
          "name": "",
          "type": "string"
        }
      ],
      "stateMutability": "view",
      "type": "function",
      "constant": true
    },
    {
      "inputs": [
        {
          "internalType": "uint256",
          "name": "tokenId",
          "type": "uint256"
        }
      ],
      "name": "getApproved",
      "outputs": [
        {
          "internalType": "address",
          "name": "",
          "type": "address"
        }
      ],
      "stateMutability": "view",
      "type": "function",
      "constant": true
    },
    {
      "inputs": [
        {
          "internalType": "address",
          "name": "owner",
          "type": "address"
        },
        {
          "internalType": "address",
          "name": "operator",
          "type": "address"
        }
      ],
      "name": "isApprovedForAll",
      "outputs": [
        {
          "internalType": "bool",
          "name": "",
          "type": "bool"
        }
      ],
      "stateMutability": "view",
      "type": "function",
      "constant": true
    },
    {
      "inputs": [],
      "name": "name",
      "outputs": [
        {
          "internalType": "string",
          "name": "",
          "type": "string"
        }
      ],
      "stateMutability": "view",
      "type": "function",
      "constant": true
    },
    {
      "inputs": [
        {
          "internalType": "uint256",
          "name": "tokenId",
          "type": "uint256"
        }
      ],
      "name": "ownerOf",
      "outputs": [
        {
          "internalType": "address",
          "name": "",
          "type": "address"
        }
      ],
      "stateMutability": "view",
      "type": "function",
      "constant": true
    },
    {
      "inputs": [
        {
          "internalType": "address",
          "name": "from",
          "type": "address"
        },
        {
          "internalType": "address",
          "name": "to",
          "type": "address"
        },
        {
          "internalType": "uint256",
          "name": "tokenId",
          "type": "uint256"
        }
      ],
      "name": "safeTransferFrom",
      "outputs": [],
      "stateMutability": "nonpayable",
      "type": "function"
    },
    {
      "inputs": [
        {
          "internalType": "address",
          "name": "from",
          "type": "address"
        },
        {
          "internalType": "address",
          "name": "to",
          "type": "address"
        },
        {
          "internalType": "uint256",
          "name": "tokenId",
          "type": "uint256"
        },
        {
          "internalType": "bytes",
          "name": "_data",
          "type": "bytes"
        }
      ],
      "name": "safeTransferFrom",
      "outputs": [],
      "stateMutability": "nonpayable",
      "type": "function"
    },
    {
      "inputs": [
        {
          "internalType": "address",
          "name": "operator",
          "type": "address"
        },
        {
          "internalType": "bool",
          "name": "approved",
          "type": "bool"
        }
      ],
      "name": "setApprovalForAll",
      "outputs": [],
      "stateMutability": "nonpayable",
      "type": "function"
    },
    {
      "inputs": [
        {
          "internalType": "bytes4",
          "name": "interfaceId",
          "type": "bytes4"
        }
      ],
      "name": "supportsInterface",
      "outputs": [
        {
          "internalType": "bool",
          "name": "",
          "type": "bool"
        }
      ],
      "stateMutability": "view",
      "type": "function",
      "constant": true
    },
    {
      "inputs": [],
      "name": "symbol",
      "outputs": [
        {
          "internalType": "string",
          "name": "",
          "type": "string"
        }
      ],
      "stateMutability": "view",
      "type": "function",
      "constant": true
    },
    {
      "inputs": [
        {
          "internalType": "uint256",
          "name": "index",
          "type": "uint256"
        }
      ],
      "name": "tokenByIndex",
      "outputs": [
        {
          "internalType": "uint256",
          "name": "",
          "type": "uint256"
        }
      ],
      "stateMutability": "view",
      "type": "function",
      "constant": true
    },
    {
      "inputs": [
        {
          "internalType": "address",
          "name": "owner",
          "type": "address"
        },
        {
          "internalType": "uint256",
          "name": "index",
          "type": "uint256"
        }
      ],
      "name": "tokenOfOwnerByIndex",
      "outputs": [
        {
          "internalType": "uint256",
          "name": "",
          "type": "uint256"
        }
      ],
      "stateMutability": "view",
      "type": "function",
      "constant": true
    },
    {
      "inputs": [
        {
          "internalType": "uint256",
          "name": "tokenId",
          "type": "uint256"
        }
      ],
      "name": "tokenURI",
      "outputs": [
        {
          "internalType": "string",
          "name": "",
          "type": "string"
        }
      ],
      "stateMutability": "view",
      "type": "function",
      "constant": true
    },
    {
      "inputs": [],
      "name": "totalSupply",
      "outputs": [
        {
          "internalType": "uint256",
          "name": "",
          "type": "uint256"
        }
      ],
      "stateMutability": "view",
      "type": "function",
      "constant": true
    },
    {
      "inputs": [
        {
          "internalType": "address",
          "name": "from",
          "type": "address"
        },
        {
          "internalType": "address",
          "name": "to",
          "type": "address"
        },
        {
          "internalType": "uint256",
          "name": "tokenId",
          "type": "uint256"
        }
      ],
      "name": "transferFrom",
      "outputs": [],
      "stateMutability": "nonpayable",
      "type": "function"
    },
    {
      "inputs": [
        {
          "internalType": "address",
          "name": "_toPunk",
          "type": "address"
        },
        {
          "internalType": "string",
          "name": "_tokenURI",
          "type": "string"
        }
      ],
      "name": "mint",
      "outputs": [
        {
          "internalType": "uint256",
          "name": "",
          "type": "uint256"
        }
      ],
      "stateMutability": "nonpayable",
      "type": "function"
    }
  ],
  "bytecode": "0x60806040523480156200001157600080fd5b506040518060400160405280601581526020017f43797068657270756e6b204e696768746d6172657300000000000000000000008152506040518060400160405280600481526020017f45564e4400000000000000000000000000000000000000000000000000000000815250620000966301ffc9a760e01b6200015960201b60201c565b8160069080519060200190620000ae92919062000262565b508060079080519060200190620000c792919062000262565b50620000e06380ac58cd60e01b6200015960201b60201c565b620000f8635b5e139f60e01b6200015960201b60201c565b6200011063780e9d6360e01b6200015960201b60201c565b505033600b60006101000a81548173ffffffffffffffffffffffffffffffffffffffff021916908373ffffffffffffffffffffffffffffffffffffffff16021790555062000308565b63ffffffff60e01b817bffffffffffffffffffffffffffffffffffffffffffffffffffffffff19161415620001f6576040517f08c379a000000000000000000000000000000000000000000000000000000000815260040180806020018281038252601c8152602001807f4552433136353a20696e76616c696420696e746572666163652069640000000081525060200191505060405180910390fd5b6001600080837bffffffffffffffffffffffffffffffffffffffffffffffffffffffff19167bffffffffffffffffffffffffffffffffffffffffffffffffffffffff1916815260200190815260200160002060006101000a81548160ff02191690831515021790555050565b828054600181600116156101000203166002900490600052602060002090601f016020900481019282601f10620002a557805160ff1916838001178555620002d6565b82800160010185558215620002d6579182015b82811115620002d5578251825591602001919060010190620002b8565b5b509050620002e59190620002e9565b5090565b5b8082111562000304576000816000905550600101620002ea565b5090565b612d0a80620003186000396000f3fe608060405234801561001057600080fd5b50600436106101215760003560e01c80636352211e116100ad578063b88d4fde11610071578063b88d4fde14610656578063c87b56dd1461075b578063d0def52114610802578063e985e9c5146108f1578063f851a4401461096b57610121565b80636352211e146104505780636c0360eb146104a857806370a082311461052b57806395d89b4114610583578063a22cb4651461060657610121565b806318160ddd116100f457806318160ddd146102b257806323b872dd146102d05780632f745c591461033e57806342842e0e146103a05780634f6ccce71461040e57610121565b806301ffc9a71461012657806306fdde0314610189578063081812fc1461020c578063095ea7b314610264575b600080fd5b6101716004803603602081101561013c57600080fd5b8101908080357bffffffffffffffffffffffffffffffffffffffffffffffffffffffff1916906020019092919050505061099f565b60405180821515815260200191505060405180910390f35b610191610a06565b6040518080602001828103825283818151815260200191508051906020019080838360005b838110156101d15780820151818401526020810190506101b6565b50505050905090810190601f1680156101fe5780820380516001836020036101000a031916815260200191505b509250505060405180910390f35b6102386004803603602081101561022257600080fd5b8101908080359060200190929190505050610aa8565b604051808273ffffffffffffffffffffffffffffffffffffffff16815260200191505060405180910390f35b6102b06004803603604081101561027a57600080fd5b81019080803573ffffffffffffffffffffffffffffffffffffffff16906020019092919080359060200190929190505050610b43565b005b6102ba610c87565b6040518082815260200191505060405180910390f35b61033c600480360360608110156102e657600080fd5b81019080803573ffffffffffffffffffffffffffffffffffffffff169060200190929190803573ffffffffffffffffffffffffffffffffffffffff16906020019092919080359060200190929190505050610c98565b005b61038a6004803603604081101561035457600080fd5b81019080803573ffffffffffffffffffffffffffffffffffffffff16906020019092919080359060200190929190505050610d0e565b6040518082815260200191505060405180910390f35b61040c600480360360608110156103b657600080fd5b81019080803573ffffffffffffffffffffffffffffffffffffffff169060200190929190803573ffffffffffffffffffffffffffffffffffffffff16906020019092919080359060200190929190505050610d69565b005b61043a6004803603602081101561042457600080fd5b8101908080359060200190929190505050610d89565b6040518082815260200191505060405180910390f35b61047c6004803603602081101561046657600080fd5b8101908080359060200190929190505050610dac565b604051808273ffffffffffffffffffffffffffffffffffffffff16815260200191505060405180910390f35b6104b0610de3565b6040518080602001828103825283818151815260200191508051906020019080838360005b838110156104f05780820151818401526020810190506104d5565b50505050905090810190601f16801561051d5780820380516001836020036101000a031916815260200191505b509250505060405180910390f35b61056d6004803603602081101561054157600080fd5b81019080803573ffffffffffffffffffffffffffffffffffffffff169060200190929190505050610e85565b6040518082815260200191505060405180910390f35b61058b610f5a565b6040518080602001828103825283818151815260200191508051906020019080838360005b838110156105cb5780820151818401526020810190506105b0565b50505050905090810190601f1680156105f85780820380516001836020036101000a031916815260200191505b509250505060405180910390f35b6106546004803603604081101561061c57600080fd5b81019080803573ffffffffffffffffffffffffffffffffffffffff169060200190929190803515159060200190929190505050610ffc565b005b6107596004803603608081101561066c57600080fd5b81019080803573ffffffffffffffffffffffffffffffffffffffff169060200190929190803573ffffffffffffffffffffffffffffffffffffffff16906020019092919080359060200190929190803590602001906401000000008111156106d357600080fd5b8201836020820111156106e557600080fd5b8035906020019184600183028401116401000000008311171561070757600080fd5b91908080601f016020809104026020016040519081016040528093929190818152602001838380828437600081840152601f19601f8201169050808301925050505050505091929192905050506111b2565b005b6107876004803603602081101561077157600080fd5b810190808035906020019092919050505061122a565b6040518080602001828103825283818151815260200191508051906020019080838360005b838110156107c75780820151818401526020810190506107ac565b50505050905090810190601f1680156107f45780820380516001836020036101000a031916815260200191505b509250505060405180910390f35b6108db6004803603604081101561081857600080fd5b81019080803573ffffffffffffffffffffffffffffffffffffffff1690602001909291908035906020019064010000000081111561085557600080fd5b82018360208201111561086757600080fd5b8035906020019184600183028401116401000000008311171561088957600080fd5b91908080601f016020809104026020016040519081016040528093929190818152602001838380828437600081840152601f19601f820116905080830192505050505050509192919290505050611513565b6040518082815260200191505060405180910390f35b6109536004803603604081101561090757600080fd5b81019080803573ffffffffffffffffffffffffffffffffffffffff169060200190929190803573ffffffffffffffffffffffffffffffffffffffff1690602001909291905050506115f1565b60405180821515815260200191505060405180910390f35b610973611685565b604051808273ffffffffffffffffffffffffffffffffffffffff16815260200191505060405180910390f35b6000806000837bffffffffffffffffffffffffffffffffffffffffffffffffffffffff19167bffffffffffffffffffffffffffffffffffffffffffffffffffffffff1916815260200190815260200160002060009054906101000a900460ff169050919050565b606060068054600181600116156101000203166002900480601f016020809104026020016040519081016040528092919081815260200182805460018160011615610100020316600290048015610a9e5780601f10610a7357610100808354040283529160200191610a9e565b820191906000526020600020905b815481529060010190602001808311610a8157829003601f168201915b5050505050905090565b6000610ab3826116ab565b610b08576040517f08c379a000000000000000000000000000000000000000000000000000000000815260040180806020018281038252602c815260200180612bae602c913960400191505060405180910390fd5b6004600083815260200190815260200160002060009054906101000a900473ffffffffffffffffffffffffffffffffffffffff169050919050565b6000610b4e82610dac565b90508073ffffffffffffffffffffffffffffffffffffffff168373ffffffffffffffffffffffffffffffffffffffff161415610bd5576040517f08c379a0000000000000000000000000000000000000000000000000000000008152600401808060200182810382526021815260200180612c5e6021913960400191505060405180910390fd5b8073ffffffffffffffffffffffffffffffffffffffff16610bf46116c8565b73ffffffffffffffffffffffffffffffffffffffff161480610c235750610c2281610c1d6116c8565b6115f1565b5b610c78576040517f08c379a0000000000000000000000000000000000000000000000000000000008152600401808060200182810382526038815260200180612b016038913960400191505060405180910390fd5b610c8283836116d0565b505050565b6000610c936002611789565b905090565b610ca9610ca36116c8565b8261179e565b610cfe576040517f08c379a0000000000000000000000000000000000000000000000000000000008152600401808060200182810382526031815260200180612ca46031913960400191505060405180910390fd5b610d09838383611892565b505050565b6000610d6182600160008673ffffffffffffffffffffffffffffffffffffffff1673ffffffffffffffffffffffffffffffffffffffff168152602001908152602001600020611ad590919063ffffffff16565b905092915050565b610d84838383604051806020016040528060008152506111b2565b505050565b600080610da0836002611aef90919063ffffffff16565b50905080915050919050565b6000610ddc82604051806060016040528060298152602001612b63602991396002611b1b9092919063ffffffff16565b9050919050565b606060098054600181600116156101000203166002900480601f016020809104026020016040519081016040528092919081815260200182805460018160011615610100020316600290048015610e7b5780601f10610e5057610100808354040283529160200191610e7b565b820191906000526020600020905b815481529060010190602001808311610e5e57829003601f168201915b5050505050905090565b60008073ffffffffffffffffffffffffffffffffffffffff168273ffffffffffffffffffffffffffffffffffffffff161415610f0c576040517f08c379a000000000000000000000000000000000000000000000000000000000815260040180806020018281038252602a815260200180612b39602a913960400191505060405180910390fd5b610f53600160008473ffffffffffffffffffffffffffffffffffffffff1673ffffffffffffffffffffffffffffffffffffffff168152602001908152602001600020611b3a565b9050919050565b606060078054600181600116156101000203166002900480601f016020809104026020016040519081016040528092919081815260200182805460018160011615610100020316600290048015610ff25780601f10610fc757610100808354040283529160200191610ff2565b820191906000526020600020905b815481529060010190602001808311610fd557829003601f168201915b5050505050905090565b6110046116c8565b73ffffffffffffffffffffffffffffffffffffffff168273ffffffffffffffffffffffffffffffffffffffff1614156110a5576040517f08c379a00000000000000000000000000000000000000000000000000000000081526004018080602001828103825260198152602001807f4552433732313a20617070726f766520746f2063616c6c65720000000000000081525060200191505060405180910390fd5b80600560006110b26116c8565b73ffffffffffffffffffffffffffffffffffffffff1673ffffffffffffffffffffffffffffffffffffffff16815260200190815260200160002060008473ffffffffffffffffffffffffffffffffffffffff1673ffffffffffffffffffffffffffffffffffffffff16815260200190815260200160002060006101000a81548160ff0219169083151502179055508173ffffffffffffffffffffffffffffffffffffffff1661115f6116c8565b73ffffffffffffffffffffffffffffffffffffffff167f17307eab39ab6107e8899845ad3d59bd9653f200f220920489ca2b5937696c318360405180821515815260200191505060405180910390a35050565b6111c36111bd6116c8565b8361179e565b611218576040517f08c379a0000000000000000000000000000000000000000000000000000000008152600401808060200182810382526031815260200180612ca46031913960400191505060405180910390fd5b61122484848484611b4f565b50505050565b6060611235826116ab565b61128a576040517f08c379a000000000000000000000000000000000000000000000000000000000815260040180806020018281038252602f815260200180612c2f602f913960400191505060405180910390fd5b6060600860008481526020019081526020016000208054600181600116156101000203166002900480601f0160208091040260200160405190810160405280929190818152602001828054600181600116156101000203166002900480156113335780601f1061130857610100808354040283529160200191611333565b820191906000526020600020905b81548152906001019060200180831161131657829003601f168201915b50505050509050600060098054600181600116156101000203166002900490501415611362578091505061150e565b60008151111561143b5760098160405160200180838054600181600116156101000203166002900480156113cd5780601f106113ab5761010080835404028352918201916113cd565b820191906000526020600020905b8154815290600101906020018083116113b9575b505082805190602001908083835b602083106113fe57805182526020820191506020810190506020830392506113db565b6001836020036101000a0380198251168184511680821785525050505050509050019250505060405160208183030381529060405291505061150e565b600961144684611bc1565b60405160200180838054600181600116156101000203166002900480156114a45780601f106114825761010080835404028352918201916114a4565b820191906000526020600020905b815481529060010190602001808311611490575b505082805190602001908083835b602083106114d557805182526020820191506020810190506020830392506114b2565b6001836020036101000a038019825116818451168082178552505050505050905001925050506040516020818303038152906040529150505b919050565b6000600b60009054906101000a900473ffffffffffffffffffffffffffffffffffffffff1673ffffffffffffffffffffffffffffffffffffffff163373ffffffffffffffffffffffffffffffffffffffff16146115bb576040517f08c379a0000000000000000000000000000000000000000000000000000000008152600401808060200182810382526025815260200180612c7f6025913960400191505060405180910390fd5b6115c5600a611d08565b60006115d1600a611d1e565b90506115dd8482611d2c565b6115e78184611f20565b8091505092915050565b6000600560008473ffffffffffffffffffffffffffffffffffffffff1673ffffffffffffffffffffffffffffffffffffffff16815260200190815260200160002060008373ffffffffffffffffffffffffffffffffffffffff1673ffffffffffffffffffffffffffffffffffffffff16815260200190815260200160002060009054906101000a900460ff16905092915050565b600b60009054906101000a900473ffffffffffffffffffffffffffffffffffffffff1681565b60006116c1826002611faa90919063ffffffff16565b9050919050565b600033905090565b816004600083815260200190815260200160002060006101000a81548173ffffffffffffffffffffffffffffffffffffffff021916908373ffffffffffffffffffffffffffffffffffffffff160217905550808273ffffffffffffffffffffffffffffffffffffffff1661174383610dac565b73ffffffffffffffffffffffffffffffffffffffff167f8c5be1e5ebec7d5bd14f71427d1e84f3dd0314c0f7b2291e5b200ac8c7c3b92560405160405180910390a45050565b600061179782600001611fc4565b9050919050565b60006117a9826116ab565b6117fe576040517f08c379a000000000000000000000000000000000000000000000000000000000815260040180806020018281038252602c815260200180612ad5602c913960400191505060405180910390fd5b600061180983610dac565b90508073ffffffffffffffffffffffffffffffffffffffff168473ffffffffffffffffffffffffffffffffffffffff16148061187857508373ffffffffffffffffffffffffffffffffffffffff1661186084610aa8565b73ffffffffffffffffffffffffffffffffffffffff16145b80611889575061188881856115f1565b5b91505092915050565b8273ffffffffffffffffffffffffffffffffffffffff166118b282610dac565b73ffffffffffffffffffffffffffffffffffffffff161461191e576040517f08c379a0000000000000000000000000000000000000000000000000000000008152600401808060200182810382526029815260200180612c066029913960400191505060405180910390fd5b600073ffffffffffffffffffffffffffffffffffffffff168273ffffffffffffffffffffffffffffffffffffffff1614156119a4576040517f08c379a0000000000000000000000000000000000000000000000000000000008152600401808060200182810382526024815260200180612a8b6024913960400191505060405180910390fd5b6119af838383611fd5565b6119ba6000826116d0565b611a0b81600160008673ffffffffffffffffffffffffffffffffffffffff1673ffffffffffffffffffffffffffffffffffffffff168152602001908152602001600020611fda90919063ffffffff16565b50611a5d81600160008573ffffffffffffffffffffffffffffffffffffffff1673ffffffffffffffffffffffffffffffffffffffff168152602001908152602001600020611ff490919063ffffffff16565b50611a748183600261200e9092919063ffffffff16565b50808273ffffffffffffffffffffffffffffffffffffffff168473ffffffffffffffffffffffffffffffffffffffff167fddf252ad1be2c89b69c2b068fc378daa952ba7f163c4a11628f55a4df523b3ef60405160405180910390a4505050565b6000611ae48360000183612043565b60001c905092915050565b600080600080611b0286600001866120c6565b915091508160001c8160001c9350935050509250929050565b6000611b2e846000018460001b8461215f565b60001c90509392505050565b6000611b4882600001612255565b9050919050565b611b5a848484611892565b611b6684848484612266565b611bbb576040517f08c379a0000000000000000000000000000000000000000000000000000000008152600401808060200182810382526032815260200180612a596032913960400191505060405180910390fd5b50505050565b60606000821415611c09576040518060400160405280600181526020017f30000000000000000000000000000000000000000000000000000000000000008152509050611d03565b600082905060005b60008214611c33578080600101915050600a8281611c2b57fe5b049150611c11565b60608167ffffffffffffffff81118015611c4c57600080fd5b506040519080825280601f01601f191660200182016040528015611c7f5781602001600182028036833780820191505090505b50905060006001830390508593505b60008414611cfb57600a8481611ca057fe5b0660300160f81b82828060019003935081518110611cba57fe5b60200101907effffffffffffffffffffffffffffffffffffffffffffffffffffffffffffff1916908160001a905350600a8481611cf357fe5b049350611c8e565b819450505050505b919050565b6001816000016000828254019250508190555050565b600081600001549050919050565b600073ffffffffffffffffffffffffffffffffffffffff168273ffffffffffffffffffffffffffffffffffffffff161415611dcf576040517f08c379a00000000000000000000000000000000000000000000000000000000081526004018080602001828103825260208152602001807f4552433732313a206d696e7420746f20746865207a65726f206164647265737381525060200191505060405180910390fd5b611dd8816116ab565b15611e4b576040517f08c379a000000000000000000000000000000000000000000000000000000000815260040180806020018281038252601c8152602001807f4552433732313a20746f6b656e20616c7265616479206d696e7465640000000081525060200191505060405180910390fd5b611e5760008383611fd5565b611ea881600160008573ffffffffffffffffffffffffffffffffffffffff1673ffffffffffffffffffffffffffffffffffffffff168152602001908152602001600020611ff490919063ffffffff16565b50611ebf8183600261200e9092919063ffffffff16565b50808273ffffffffffffffffffffffffffffffffffffffff16600073ffffffffffffffffffffffffffffffffffffffff167fddf252ad1be2c89b69c2b068fc378daa952ba7f163c4a11628f55a4df523b3ef60405160405180910390a45050565b611f29826116ab565b611f7e576040517f08c379a000000000000000000000000000000000000000000000000000000000815260040180806020018281038252602c815260200180612bda602c913960400191505060405180910390fd5b80600860008481526020019081526020016000209080519060200190611fa5929190612999565b505050565b6000611fbc836000018360001b61247f565b905092915050565b600081600001805490509050919050565b505050565b6000611fec836000018360001b6124a2565b905092915050565b6000612006836000018360001b61258a565b905092915050565b600061203a846000018460001b8473ffffffffffffffffffffffffffffffffffffffff1660001b6125fa565b90509392505050565b6000818360000180549050116120a4576040517f08c379a0000000000000000000000000000000000000000000000000000000008152600401808060200182810382526022815260200180612a376022913960400191505060405180910390fd5b8260000182815481106120b357fe5b9060005260206000200154905092915050565b60008082846000018054905011612128576040517f08c379a0000000000000000000000000000000000000000000000000000000008152600401808060200182810382526022815260200180612b8c6022913960400191505060405180910390fd5b600084600001848154811061213957fe5b906000526020600020906002020190508060000154816001015492509250509250929050565b60008084600101600085815260200190815260200160002054905060008114158390612226576040517f08c379a00000000000000000000000000000000000000000000000000000000081526004018080602001828103825283818151815260200191508051906020019080838360005b838110156121eb5780820151818401526020810190506121d0565b50505050905090810190601f1680156122185780820380516001836020036101000a031916815260200191505b509250505060405180910390fd5b5084600001600182038154811061223957fe5b9060005260206000209060020201600101549150509392505050565b600081600001805490509050919050565b60006122878473ffffffffffffffffffffffffffffffffffffffff166126d6565b6122945760019050612477565b60606123fe63150b7a0260e01b6122a96116c8565b888787604051602401808573ffffffffffffffffffffffffffffffffffffffff1681526020018473ffffffffffffffffffffffffffffffffffffffff16815260200183815260200180602001828103825283818151815260200191508051906020019080838360005b8381101561232d578082015181840152602081019050612312565b50505050905090810190601f16801561235a5780820380516001836020036101000a031916815260200191505b5095505050505050604051602081830303815290604052907bffffffffffffffffffffffffffffffffffffffffffffffffffffffff19166020820180517bffffffffffffffffffffffffffffffffffffffffffffffffffffffff8381831617835250505050604051806060016040528060328152602001612a59603291398773ffffffffffffffffffffffffffffffffffffffff166126e99092919063ffffffff16565b9050600081806020019051602081101561241757600080fd5b8101908080519060200190929190505050905063150b7a0260e01b7bffffffffffffffffffffffffffffffffffffffffffffffffffffffff1916817bffffffffffffffffffffffffffffffffffffffffffffffffffffffff191614925050505b949350505050565b600080836001016000848152602001908152602001600020541415905092915050565b6000808360010160008481526020019081526020016000205490506000811461257e57600060018203905060006001866000018054905003905060008660000182815481106124ed57fe5b906000526020600020015490508087600001848154811061250a57fe5b906000526020600020018190555060018301876001016000838152602001908152602001600020819055508660000180548061254257fe5b60019003818190600052602060002001600090559055866001016000878152602001908152602001600020600090556001945050505050612584565b60009150505b92915050565b60006125968383612701565b6125ef5782600001829080600181540180825580915050600190039060005260206000200160009091909190915055826000018054905083600101600084815260200190815260200160002081905550600190506125f4565b600090505b92915050565b60008084600101600085815260200190815260200160002054905060008114156126a1578460000160405180604001604052808681526020018581525090806001815401808255809150506001900390600052602060002090600202016000909190919091506000820151816000015560208201518160010155505084600001805490508560010160008681526020019081526020016000208190555060019150506126cf565b828560000160018303815481106126b457fe5b90600052602060002090600202016001018190555060009150505b9392505050565b600080823b905060008111915050919050565b60606126f88484600085612724565b90509392505050565b600080836001016000848152602001908152602001600020541415905092915050565b60608247101561277f576040517f08c379a0000000000000000000000000000000000000000000000000000000008152600401808060200182810382526026815260200180612aaf6026913960400191505060405180910390fd5b612788856126d6565b6127fa576040517f08c379a000000000000000000000000000000000000000000000000000000000815260040180806020018281038252601d8152602001807f416464726573733a2063616c6c20746f206e6f6e2d636f6e747261637400000081525060200191505060405180910390fd5b600060608673ffffffffffffffffffffffffffffffffffffffff1685876040518082805190602001908083835b6020831061284a5780518252602082019150602081019050602083039250612827565b6001836020036101000a03801982511681845116808217855250505050505090500191505060006040518083038185875af1925050503d80600081146128ac576040519150601f19603f3d011682016040523d82523d6000602084013e6128b1565b606091505b50915091506128c18282866128cd565b92505050949350505050565b606083156128dd57829050612992565b6000835111156128f05782518084602001fd5b816040517f08c379a00000000000000000000000000000000000000000000000000000000081526004018080602001828103825283818151815260200191508051906020019080838360005b8381101561295757808201518184015260208101905061293c565b50505050905090810190601f1680156129845780820380516001836020036101000a031916815260200191505b509250505060405180910390fd5b9392505050565b828054600181600116156101000203166002900490600052602060002090601f016020900481019282601f106129da57805160ff1916838001178555612a08565b82800160010185558215612a08579182015b82811115612a075782518255916020019190600101906129ec565b5b509050612a159190612a19565b5090565b5b80821115612a32576000816000905550600101612a1a565b509056fe456e756d657261626c655365743a20696e646578206f7574206f6620626f756e64734552433732313a207472616e7366657220746f206e6f6e20455243373231526563656976657220696d706c656d656e7465724552433732313a207472616e7366657220746f20746865207a65726f2061646472657373416464726573733a20696e73756666696369656e742062616c616e636520666f722063616c6c4552433732313a206f70657261746f7220717565727920666f72206e6f6e6578697374656e7420746f6b656e4552433732313a20617070726f76652063616c6c6572206973206e6f74206f776e6572206e6f7220617070726f76656420666f7220616c6c4552433732313a2062616c616e636520717565727920666f7220746865207a65726f20616464726573734552433732313a206f776e657220717565727920666f72206e6f6e6578697374656e7420746f6b656e456e756d657261626c654d61703a20696e646578206f7574206f6620626f756e64734552433732313a20617070726f76656420717565727920666f72206e6f6e6578697374656e7420746f6b656e4552433732314d657461646174613a2055524920736574206f66206e6f6e6578697374656e7420746f6b656e4552433732313a207472616e73666572206f6620746f6b656e2074686174206973206e6f74206f776e4552433732314d657461646174613a2055524920717565727920666f72206e6f6e6578697374656e7420746f6b656e4552433732313a20617070726f76616c20746f2063757272656e74206f776e6572536f6c6f20656c2041646d696e20707565646520656e7669617220746f6b656e732e2e21214552433732313a207472616e736665722063616c6c6572206973206e6f74206f776e6572206e6f7220617070726f766564a26469706673582212206a72baa99d49005a8c0aa730139f634bb1cf14605a4b85b48866d5e908c5326764736f6c63430007020033",
  "immutableReferences": {},
  "source": "// SPDX-License-Identifier: MIT\npragma solidity ^0.7.2;\n\nimport '@openzeppelin/contracts/token/ERC721/ERC721.sol';\nimport '@openzeppelin/contracts/utils/Counters.sol';\n\ncontract Cypher is ERC721 {\n  using Counters for Counters.Counter;\n  Counters.Counter private _tokenIds;\n\n  address public admin;\n\n  constructor() ERC721(\"Cypherpunk Nightmares\", \"EVND\") public {\n    admin = msg.sender;\n  }\n\n  function mint(address _toPunk, string memory _tokenURI) external returns(uint256) {\n    require(msg.sender == admin, 'Solo el Admin puede enviar tokens..!!');\n    _tokenIds.increment();\n    uint256 newItemId = _tokenIds.current();\n    _mint(_toPunk, newItemId);\n    _setTokenURI(newItemId, _tokenURI);\n\n    return newItemId;\n  }\n}\n",
  "sourcePath": "/Users/federico/Desktop/bbvaHack/cypherNFT/contracts/Cypher.sol",
  "compiler": {
    "name": "solc",
    "version": "0.7.2+commit.51b20bc0.Emscripten.clang"
  },
  "schemaVersion": "3.3.1",
  "updatedAt": "2021-02-04T04:53:34.616Z",
  "networkType": "ethereum",
  "devdoc": {
    "kind": "dev",
    "methods": {
      "approve(address,uint256)": {
        "details": "See {IERC721-approve}."
      },
      "balanceOf(address)": {
        "details": "See {IERC721-balanceOf}."
      },
      "baseURI()": {
        "details": "Returns the base URI set via {_setBaseURI}. This will be automatically added as a prefix in {tokenURI} to each token's URI, or to the token ID if no specific URI is set for that token ID."
      },
      "getApproved(uint256)": {
        "details": "See {IERC721-getApproved}."
      },
      "isApprovedForAll(address,address)": {
        "details": "See {IERC721-isApprovedForAll}."
      },
      "name()": {
        "details": "See {IERC721Metadata-name}."
      },
      "ownerOf(uint256)": {
        "details": "See {IERC721-ownerOf}."
      },
      "safeTransferFrom(address,address,uint256)": {
        "details": "See {IERC721-safeTransferFrom}."
      },
      "safeTransferFrom(address,address,uint256,bytes)": {
        "details": "See {IERC721-safeTransferFrom}."
      },
      "setApprovalForAll(address,bool)": {
        "details": "See {IERC721-setApprovalForAll}."
      },
      "supportsInterface(bytes4)": {
        "details": "See {IERC165-supportsInterface}. Time complexity O(1), guaranteed to always use less than 30 000 gas."
      },
      "symbol()": {
        "details": "See {IERC721Metadata-symbol}."
      },
      "tokenByIndex(uint256)": {
        "details": "See {IERC721Enumerable-tokenByIndex}."
      },
      "tokenOfOwnerByIndex(address,uint256)": {
        "details": "See {IERC721Enumerable-tokenOfOwnerByIndex}."
      },
      "tokenURI(uint256)": {
        "details": "See {IERC721Metadata-tokenURI}."
      },
      "totalSupply()": {
        "details": "See {IERC721Enumerable-totalSupply}."
      },
      "transferFrom(address,address,uint256)": {
        "details": "See {IERC721-transferFrom}."
      }
    },
    "version": 1
  },
  "userdoc": {
    "kind": "user",
    "methods": {},
    "version": 1
  }
}